:100000000C942A000C9434000C9434000C943400AA
:100010000C9434000C9434000C9434000C94340090
:100020000C9434000C9434000C9434000C94340080
:100030000C9434000C9434000C9434000C94340070
:100040000C9434000C9434000C9434000C94340060
:100050000C94340011241FBECFE5D8E0DEBFCDBF25
:100060000E9436000C944B000C940000B89AC09A81
:1000700020E931E0C09880E197E2F9013197F1F78A
:100080000197D9F7C09A80E29EE4F9013197F1F720
:0A0090000197D9F7EFCFF894FFCFE6
:00000001FF
